:1000000008308A00002800008C27E8363A102517AF
:100010003233201020008C217539721DA0122E1948
:10002000E62000010C2B6F36741DA0122E19662BD2
:100030000000553084008313000803192C28063073
:10004000F800F701F70B2228F80B21287B30F70086
:10005000F70B2828800B1F2808005C18312808128D
:1000600032280816831608128312DC1839288812E1
:100070003A2888168316881283125C1941280813BF
:1000800042280817831608138312DC19492888139D
:100090004A28881783168813000083120715201139
:1000A0002008831687000230F700F70B55285828E0
:1000B0000000831207112011200883168700831285
:1000C0000800DD018316081600308312081A01307B
:1000D000DD048316881600308312881A0130F70079
:1000E0000310F70D7708DD0483160817003083121C
:1000F000081B0130F700F70DF70DFC30F705770806
:10010000DD048316881700308312881B0130F70046
:10011000F70DF70DF70DF830F7057708DD045D08EA
:10012000F800080020112008831687008312201091
:100130002008831687008312A010200883168700EA
:1001400083120710201020088316870008168816CF
:100150000817881783128714A010200883168700B9
:100160000000831207152011200883168700000065
:10017000831261207808DC00071120112008831603
:1001800087000000831207152011200883168700BE
:10019000C928CA280000831261207808DB000711F3
:1001A000201120088316870008128812081388136C
:1001B00083125C0EF700F030F70577085B04F80057
:1001C0007808DB00DB1FE6288316A628D908031D64
:1001D000EB280710EC28071420102008831687004E
:1001E000000083128710A0102008831687000000EB
:1001F00083120711201120088316870083125A0EDC
:10020000DB000F30DB055B08DC002D205A080F39BE
:10021000DB00DC002D2008002830C8000C30C900AD
:100220000130CA000630CB000711201120088316C8
:10023000870083120710201020088316870083127E
:100240008710A01020088316870008128812081350
:100250008813831220112008831687008312201030
:100260002008831687008312A010200883168700B9
:100270000F308312D50019200130C7004708033C16
:10028000031C4A290330DC002D200530D50019203D
:10029000C70A3E290230DC002D200530D500192088
:1002A000C7014708033C031C612948304707840005
:1002B00083130008CC00D9014C08DA009220C70A49
:1002C00051298A150A123428560B67296A294030A9
:1002D000D7006B29D70101305502D707570880385E
:1002E000D800D9015808DA00922008005408073ACB
:1002F000031984290B3A03198929063A031991290C
:10030000023A031997299C290130D500D6006421AF
:10031000A129D9010130DA0092200230D50019203C
:10032000A1290130D5000230D6006421A129D901CC
:100330001030DA009220A1290130D9005408DA00E7
:10034000922008008E30F7004808F8004708F900AE
:10035000FA01F808031DB6297908F800F9010830F8
:10036000F702F808031DB629F701BE290310F81B90
:10037000BD29F90DF80DF703B629F8130800540844
:1003800003192F2ADC00580803192F2ADC07031849
:10039000D0297F30DC02031C2F2A03192F2AD429ED
:1003A0008130DC0703182F2A5C08F700F801F901F7
:1003B000FA015508E000E0175608DF005708DE0094
:1003C0001830DC00DD015E1CFD295B08FA07031C08
:1003D000EF29F90A031DEF29F80A0319DD175A0856
:1003E000F907031CF629F80A0319DD175908D60086
:1003F000D6175608F8070318DD17DD0DF80CF90CB1
:10040000FA0CE00CDF0CDE0C0310DC0BE2290130EF
:10041000F70703182F2AF81B142AE00DFA0DF90D1F
:10042000F80DF70303192F2AE01F252AFA0A031DE6
:10043000252AF90A031D252AF80A031D252AF80C86
:10044000F90CFA0CF70A03192F2A5508DD00590890
:10045000DD06DD1F2D2AF817332AF813332AF7019A
:10046000F801F901FA01080080308318D006D5019F
:10047000D6014C08D4005008D4064B080319242B8D
:10048000D300F7004F0803192D2BD3020319C92AF3
:10049000031C872A5008D900D9175108D8005208E0
:1004A000D700D6010310D90CD80CD70CD60CD30B1F
:1004B000512AD41F5E2A5514412B5510531055163E
:1004C0004E3084008313562B5512D41B712A531CB3
:1004D0007C2AD90CD80CD70CD60CF70A03193C2B64
:1004E0007C2AD91B7F2A0310D60DD70DD80DD90D24
:1004F000F70303193C2B712A5517E92A55134C08A9
:10050000D400D41F852AD917352BD913352B4F0882
:10051000D300F7004B08D3024C08D900D9174D0877
:10052000D8004E08D700D6010310D90CD80CD70C30
:10053000D60CD30B932AD41FA02AD514412BD51047
:100540005310D516523084008313562BD512D41B6A
:10055000B32A531CBE2AD90CD80CD70CD60CF70AD8
:1005600003193C2BBE2AD91BC12A0310D60DD70D67
:10057000D80DD90DF70303193C2BB32AD517E92A57
:10058000D5135008D400D41FC72AD917352BD91337
:10059000352B5008D900D9175108D8005208D70078
:1005A000D41FD62AD9135515412B5511D6015310F6
:1005B0004E3084008313562BD41BFF2A4C08D400E2
:1005C000531CE92AD90CD80CD70CD60CF70A0319FE
:1005D0003C2BD61FFA2AD70A031DFA2AD80A031D74
:1005E000FA2AD90A031DFA2AD90CD80CD70CF70A13
:1005F00003193C2B551B7E2AD51BC02A1E2B80308D
:10060000D906D91F072B412B5008D400142B4C08B6
:10061000D400D908031D142BD808031D142BD708A8
:10062000031D142BF701352BD91B1E2B0310D60DE0
:10063000D70DD80DD90DF70B142B3C2BD41F222B23
:10064000D917352BD913352B4F08F7005008D9008F
:100650005108D8005208D700352B4B08F7004C083A
:10066000D9004D08D8004E08D7005908F80058089E
:10067000F9005708FA00742BF701F801F901FA01A3
:10068000742BD601D709D809D909D609D60A031D72
:100690004F2BD70A031D4F2BD80A0319D90A551817
:1006A0005D2AD5189F2A5519D52A042B0008D7078B
:1006B000031C602BD80A031D602BD90A031953149D
:1006C00084030008D807031C682BD90A03195314A4
:1006D00084030008801F803AD90703185314551A61
:1006E000642AD51AA62ADC2A08004B0803193A2CDA
:1006F000D7004F0803193A2CD702031C842B7F30F4
:10070000D70703183A2C8A2B8130D702031C3A2CC6
:1007100003193A2C5708F700F801F901FA01D6013C
:100720004C08D500D5174D08D4004E08D300193019
:10073000D7005208D3020318AD2B0130D40203189E
:10074000AD2BD5020318AD2BD6020318AD2BD60A5C
:10075000D50AD40A5208D307DF2B5108D402031854
:10076000C82B0130D5020318C82BD6020318C82B9A
:10077000D60AD50A5108D4075208D307031CDF2B29
:10078000D40A031DDF2BD50A031DDF2BD60ADF2B6E
:1007900050088038D5020318DE2B0130D60203182A
:1007A000DE2BD60A50088038D5075108D407031C21
:1007B000BC2BD50A031DBC2BD60ABC2B7A14D70B35
:1007C000E22BED2B0310D30DD40DD50DD60D031058
:1007D000FA0DF90DF80DD80D992B581CF52B0310B7
:1007E000F80CF90CFA0CD80CF82BF70303193A2C77
:1007F000D81B212C0310D30DD40DD50DD60D5208C6
:10080000D30203180D2C0130D40203180D2CD5028D
:1008100003180D2CD602031C302C5108D4020318E7
:10082000182C0130D5020318182CD602031C302CCA
:1008300050088038D5020318212C0130D602031C41
:10084000302CFA0A031D302CF90A031D302CF80A4B
:10085000031D302CF70A03193A2CF80CF90CFA0C8A
:100860004C08D7005008D706D71F382CF8173E2C55
:10087000F8133E2CF701F801F901FA0108004808C5
:10088000CF004C08CF06CF1F4A2C03110310C81B02
:1008900003147D2C4808CF004B08D0004708D00235
:1008A0000319582CCF1F7D2C0308013A83007D2C9F
:1008B0004C08D0004808D0020319642CCF1F7D2CAF
:1008C0000308013A83007D2C4D08D0004908D0026E
:1008D0000319702CCF1F7D2C0308013A83007D2C57
:1008E0004E08D0004A08D00203197C2CCF1F7D2C63
:1008F0000308013A83007D2C031008000B08C80090
:100900008B13831603178C170C140000000083123E
:100910000313C81B8B170318B52C03170C087F395A
:100920000313C80003170D080313C90003170F08AA
:100930000313CA004808D4007621490803178D0024
:1009400003134A0803178F0003130B08CB008B1304
:10095000831603178C170C14000000008312031376
:10096000CB1B8B17C70BB52CD42C03170C0D0E0DFE
:100970007F390313C80003170D080313C9000317B9
:100980000F080313CA004808D4007621490803174A
:100990008D0003134A0803178F008D0A03198F0A6D
:1009A00003100313C70B7E2C08008318DA2C5C306D
:1009B00084008313F701F801F901FA01DC01DD017C
:1009C000DE01DF015B085A04590458040319182D8D
:1009D0002030E0000310D40DD50DD60DD70DDC0D61
:1009E000DD0DDE0DDF0D5B085F02031D012D5A08D2
:1009F0005E02031D012D59085D02031D012D5808DB
:100A00005C02031C122D5808DC025908031C590F04
:100A1000DD025A08031C5A0FDE025B08031C5B0F41
:100A2000DF020314F70DF80DF90DFA0DE00BEA2CB7
:100A30005C088000840A5D088000840A5E088000EB
:100A4000840A5F08800008000408CC004B08CE0030
:100A50000319432D4A08D7004908D6004808D50095
:100A60004708D400DB01DA012030D9008230D800F9
:100A7000BF217A08CA007908C9007808C800770839
:100A8000C700CE0B2A2D4A08D7004908D6004808CF
:100A9000D5004708D4005408B63CD400FA015508E4
:100AA000D800D5170310D50CD60CD70CFA0CF90CBE
:100AB000F80CF70CD40B522DD81F692DF709F80943
:100AC000F909FA09F70A0319F80A0319F90A0319C7
:100AD000FA0A7A08CA007908C9007808C8007708B5
:100AE000C700CA1F802DCC03CC16C709C809C90985
:100AF000CA09C70A0319C80A0319C90A0319CA0A85
:100B00003B30D3009A30D200CA30D100D0010A3035
:100B1000CE004B080319CC0A83144730840083139A
:100B20004A08D7004908D6004808D5004708D4002D
:100B30005308DB005208DA005108D9005008D800E9
:100B4000D5247808F708031DB82D4B0A4E02031967
:100B5000B82D4C080319BA2D0F394E020319B22DC6
:100B60000318EA2DCC1BEA2D4C1BBA2D2030E62DA4
:100B70002030CC05CC1EC82DCC124B08031DCC0355
:100B80007708CC002D30D40076214C08F700CC013A
:100B90004B084E02031DD62D7708CC002E30D40012
:100BA00076214C08F7002030CC0500303030CC1EC8
:100BB000E62DCC124B08031DCC037708CC002D305A
:100BC000D40076214C08F700CC013030F7077708C5
:100BD000D400762183105308D7005208D60051085C
:100BE000D5005008D400DB01DA01D9010A30D80061
:100BF000D5247A08D3007908D2007808D100770884
:080C0000D000CE0B8C2D080082
:1010000003081F398300FF30A000A201A101A40141
:10101000A301A601A501AA01A901A801A701AE018A
:10102000AD01AC01AB01B201B101B001AF01B6013C
:10103000B5018030B4007F30B300BA01B90180300F
:10104000B8007F30B700BE01BD018030BC007F30EA
:10105000BB0083161F149F141F159F1107309C009F
:1010600083138A1183120C298A1583161F109F106F
:101070001F119F111F1383121F139F1783169F1792
:1010800083121F140C30D4008A1176218A1518306F
:10109000F8001F08C73978049F002030F700F70BCD
:1010A0004F28522800001F151F19542883161E08A8
:1010B0008312A1001E08A2002208C8002108C70050
:1010C0008A11A2218A157A08CA007908C90078080D
:1010D000C8007708C7004A08D7004908D600480862
:1010E000D5004708D4000A30DB002830DA00203071
:1010F000D9007730D8008A11BF218A157A08C2003A
:101100007908C1007808C0007708BF004208D700FE
:101110004108D6004008D5003F08D400DB0140302C
:10112000DA001C30D9008C30D8008A11BF218A1512
:101130007A08CA007908C9007808C8007708C7008B
:101140008314CE01CD012030CC008130CB00420889
:10115000D2004108D1004008D0003F08CF008A11DA
:1011600034228A154A08CE004908CD004808CC0030
:101170004708CB007A08D2007908D1007808D0005F
:101180007708CF008A1175238A157A08AA00790892
:10119000A9007808A8007708A7001030F8001F08F9
:1011A000C73978049F002030F700F70BD528D828DE
:1011B00000001F151F19DA2883161E088312A300CA
:1011C0001E08A4002408C8002308C7008A11A22111
:1011D0008A157A08CA007908C9007808C800770813
:1011E000C7004A08D7004908D6004808D500470874
:1011F000D4000A30DB002830DA002030D900773004
:10120000D8008A11BF218A157A08C6007908C5005E
:101210007808C4007708C30083144608CE00450848
:10122000CD004408CC004308CB00D201D1012030CE
:10123000D0008030CF008A1134228A157A08CA0083
:101240007908C9007808C8007708C7004A08CE00A6
:101250004908CD004808CC004708CB00A430D20094
:101260007030D1003D30D0007C30CF008A11752322
:101270008A157A08AE007908AD007808AC007708C6
:10128000AB000830F8001F08C73978049F002030F1
:10129000F700F70B49294C2900001F151F194E298B
:1012A00083161E088312A5001E08A6002608C80083
:1012B0002508C7008A11A2218A157A08CA00790870
:1012C000C9007808C8007708C7004A08D70049084D
:1012D000D6004808D5004708D400DB01DA014830C1
:1012E000D9008430D8008A11BF218A157A08CA0033
:1012F0007908C9007808C8007708C7004A08CE00F6
:101300004908CD004808CC004708CB00D201C030C6
:10131000D1007F30D0008830CF008A1175238A1524
:101320007A08B2007908B1007808B0007708AF00F9
:101330002A08CA002908C9002808C8002708C700C9
:101340003608CE003508CD003408CC003308CB0079
:101350008A113F248A150319E5290130D500D600EA
:101360008A1164218A15043003178D0000308F0024
:10137000031006300313C7008A117E248A158930B2
:1013800084002A08CA002908C9002808C8002708BC
:10139000C7000230CB008A1124258A152030D400E2
:1013A0008A1176218A152030D4008A1176218A1577
:1013B0002030D4008A1176218A152A08B60029081F
:1013C000B5002808B4002708B3002E08CA002D086D
:1013D000C9002C08C8002B08C7003A08CE003908FD
:1013E000CD003808CC003708CB008A113F248A157D
:1013F0000319282A0130D500D6008A1164218A15E4
:101400000B3003178D0000308F00031007300313DB
:10141000C7008A117E248A15893084002E08CA00EC
:101420002D08C9002C08C8002B08C7000230CB00CB
:101430008A1124258A154130D4008A1176218A1513
:101440002E08BA002D08B9002C08B8002B08B700E8
:101450003208CA003108C9003008C8002F08C70088
:101460003E08CE003D08CD003C08CC003B08CB0038
:101470008A113F248A1503196B2A0130D500D60042
:101480008A1164218A15123003178D0000308F00F5
:10149000031007300313C7008A117E248A15893090
:1014A00084003208CA003108C9003008C8002F087B
:1014B000C7000230CB008A1124258A155630D4008B
:1014C0008A1176218A153208BE003108BD00300825
:1014D000BC002F08BB006430D5008A1119208A1582
:0414E0004728630036
:02400E00723FFF
:00000001FF
;PIC16F877A
;CRC=1EAF  CREATED="20-May-24 21:32"
